:020000040800F2
:10000000004000201D290008DD240008E32400082A
:10001000E9240008EF240008F5240008000000008F
:10002000000000000000000000000000FB240008A9
:1000300009250008000000001725000825250008F4
:100040006D2900086D2900086D2900086D29000838
:100050006D2900086D2900086D2900086D29000828
:100060006D2900086D2900086D2900083125000858
:100070006D2900086D2900086D2900084525000834
:100080006D2900086D2900086D2900086D290008F8
:10009000592500086D2900086D2900086D29000800
:1000A0006D2900086D2900086D2900086D290008D8
:1000B0006D250008A92500086D2900086D29000894
:1000C0006D2900086D2900086D2900086D290008B8
:1000D0006D290008D12500086D2900086D29000848
:1000E0006D2900086D2900086D2900086D29000898
:1000F0006D2900086D2900080000000000000000C4
:1001000000000000000000006D2900086D290008B3
:1001100000000000000000006D2900086D290008A3
:100120006D2900086D290008E52500086D290008E3
:100130006D2900086D2900086D2900086D29000847
:100140006D29000800000000000000000000000011
:10015000000000000000000000000000000000009F
:1001600000000000000000006D2900086D29000853
:100170006D290008000000006D2900080000000043
:08018000000000006D290008D9
:1001880010B5054C237833B9044B13B10448AFF3C9
:1001980000800123237010BD100000200000000023
:1001A800E488000808B5034B1BB103490348AFF3C3
:1001B800008008BD0000000014000020E48800084A
:1001C80080B584B000AF3B1D00221A605A609A6067
:1001D8002E4B2F4A1A602D4B4FF480729A602B4B8E
:1001E80001221A73294B00221A75284B4FF46022FA
:1001F800DA61264B00225A60244B04221A612348F4
:1002080002F03CFC0346002B01D002F023F8072340
:100218007B600123BB600723FB603B1D19461B481D
:1002280002F0A2FD0346002B01D002F013F80E23C2
:100238007B600223BB603B1D1946144802F094FD05
:100248000346002B01D002F005F80F237B6003233F
:10025800BB603B1D19460D4802F086FD0346002B86
:1002680001D001F0F7FF08237B600423BB603B1D2E
:100278001946064802F078FD0346002B01D001F02C
:10028800E9FF00BF1037BD4680BD00BF2C0000202D
:100298000024014080B58CB000AF786007F11C03E2
:1002A80000221A605A609A60DA601A617B681B68DB
:1002B800424A93427DD1424B9B69414A43F40073C1
:1002C80093613F4B9B6903F40073BB61BB693C4B73
:1002D8005B693B4A43F400335361394B5B6903F470
:1002E80000337B617B69364B5B69354A43F40023F5
:1002F8005361334B5B6903F400233B613B69304B2B
:100308005B692F4A43F4802353612D4B5B6903F4E7
:100318008023FB60FB688023FB6103233B6200238F
:100328007B6207F11C0319464FF0904004F02AFA4B
:100338003023FB6103233B6200237B6207F11C032C
:100348001946204804F01EFA0123FB6103233B628F
:1003580000237B6207F11C0319461B4804F012FABC
:100368001A4B1B4A1A60194B00225A60174B00227D
:100378009A60164B8022DA60144B4FF480721A612F
:10038800124B4FF480625A61104B20229A610F4B36
:100398004FF40052DA610D4803F0EDFD0346002BDF
:1003A80001D001F057FF7B68084A1A62074A7B6848
:1003B800536200BF3037BD4680BD00BF00240140F6
:1003C8000010024000080048000400485C000020BB
:1003D8000800024080B500AF174B184A1A60164B48
:1003E80002225A60144B00229A60134B0022DA60F2
:1003F800114B4FF440221A610F4B4FF480125A618F
:100408000D4B00221A760C4B00225A760A4B00221A
:100418009A76094B0022DA76074B00221A77064BA8
:1004280000225A77044802F02AFE0346002B01D026
:1004380001F010FF00BF80BDA00000200064004054
:1004480080B58AB000AF786007F1140300221A6003
:100458005A609A60DA601A617B681B681B4A93428B
:1004680030D11B4BDB691A4A43F00073D361184B38
:10047800DB6903F000733B613B69154B5B69144A08
:1004880043F480235361124B5B6903F48023FB60C0
:10049800FB684FF440737B610223BB610023FB615F
:1004A80003233B6209237B6207F1140319460948B9
:1004B80004F068F900220021142003F022FD142022
:1004C80003F03BFD00BF2837BD4680BD00640040F7
:1004D800001002400004004880B58AB000AF3B46D7
:1004E80028220021184608F0CCF900237B6100235C
:1004F800BB610123FB6100233B6100233B600023B8
:100508007B600023BB600023FB6001233B623B460A
:100518001946064802F0AEFE0346002B01D001F052
:1005280099FE00BF2837BD4680BD00BFA00000204F
:1005380080B500AF094802F067FF0346002B01D0E1
:1005480001F088FE40F20351044803F093F9034692
:10055800002B01D001F07EFE00BF80BDA00000206E
:1005680080B582B000AF1A4B5B69194A43F00103AA
:100578005361174B5B6903F001037B607B68144B85
:100588005B69134A43F002035361114B5B6903F043
:1005980002033B603B68002200210B2003F0B1FC02
:1005A8000B2003F0CAFC002200210F2003F0A9FC55
:1005B8000F2003F0C2FC002200213A2003F0A1FC26
:1005C8003A2003F0BAFC00BF0837BD4680BD00BF23
:1005D8000010024080B58CB000AF07F11C03002268
:1005E8001A605A609A60DA601A61464B5B69454A3C
:1005F80043F400235361434B5B6903F40023BB615D
:10060800BB69404B5B693F4A43F4800353613D4BF0
:100618005B6903F480037B617B693A4B5B69394A08
:1006280043F400335361374B5B6903F400333B6198
:100638003B69344B5B69334A43F480235361314B44
:100648005B6903F48023FB60FB682E4B5B692D4AD2
:1006580043F4001353612B4B5B6903F40013BB6035
:10066800BB68284B5B69274A43F480135361254BC9
:100678005B6903F480137B607B684FF6CF73FB6183
:1006880000233B6200237B6207F11C0319461E48C6
:1006980004F078F848F27F13FB6100233B620023E3
:1006A8007B6207F11C0319464FF0904004F06AF88A
:1006B8004CF27803FB6100233B6200237B6207F165
:1006C8001C031946114804F05DF84FF48073FB6170
:1006D80000233B6200237B6207F11C0319460C4888
:1006E80004F050F8C023FB6100233B6200237B62C7
:1006F80007F11C031946074804F044F800BF3037D7
:10070800BD4680BD001002400008004800040048B3
:10071800000C00480014004880B500AF02F024F92E
:1007280000F04AF8FFF756FFFFF71AFFFFF748FDFA
:10073800FFF750FE01F094FD01F06CFF01F0B6FFE9
:1007480002F042F84FF47A7002F074F900F0F0F811
:1007580001F0A4FC124806F0B7FA124806F0B4FA01
:1007680001221149114806F0A1FFFFF7B5FEFFF776
:10077800DFFE0F4802F05AFA00210E4806F02CF866
:100788004FF47A710B4806F067F800F079F800F03A
:10079800E5FC0346184600F015FB00F095F8FCE769
:1007A8006C050020B80500207F0300200406002007
:1007B8002C000020E404002080B59AB000AF07F1B7
:1007C800400328220021184608F05BF807F12C03A3
:1007D80000221A605A609A60DA601A613B462C223D
:1007E8000021184608F04DF801233B644FF480338C
:1007F8007B640223BB6401233B650223FB654FF442
:1008080080333B6600237B6607F14003184604F0FB
:100818000FFA0346002B01D001F01CFD0F23FB62E9
:1008280002233B6300237B634FF48063BB63002395
:10083800FB6307F12C030021184605F037FA03463D
:10084800002B01D001F006FD40F681033B60012337
:10085800BB604FF008433B620023FB613B461846F0
:1008680005F046FC0346002B01D001F0F3FC4FF4E1
:10087800007004F019F900BF6837BD4680BD00005C
:1008880080B500AF0C4B1B68DAB20C4B1A700B4BDF
:10089800FF221A70094B1B78FF2B03D1084801F07F
:1008A80017F802E0064800F0BBFF0649044800F0CC
:1008B800A3F900BF80BD00BF00E00008BE0400200F
:1008C800E80300208804002080B500AF114B1B7896
:1008D800002B14D0022302220F49104800F0E3F93C
:1008E80001230F4A0D490F4800F0B0F800230E4AC3
:1008F8000E490C4800F0AAF8064B00221A7000F0C6
:100908002DFC0346184600F09BFB00F0FFF900BFE2
:1009180080BD00BFC8000020CC000020D40000200B
:10092800DC00002088040020E0000020D80000201F
:1009380080B500AF104B1B689AB2104B1A800F4B52
:100948001B88CD2B15D103F0B5FD0D4B00221A6085
:100958000B4B0C4A5A600A4B01229A600A49084814
:1009680003F06CFE642002F065F803F0C9FD00F0A6
:1009780041F800BF80BD00BF02A00008BC040020F1
:10098800C004002000A000089403002080B584B0B3
:1009980000AF03F08FFD00237B60124BBB60012387
:1009A800FB603B1D1049184603F048FE4FF0CD028E
:1009B8004FF000030D49012003F00CFD03F0A0FDEA
:1009C8000A4B1B689AB20A4B1A80094B1B88CD2B1D
:1009D80003D100F0D5FF03F0BEFA00BF1037BD46C3
:1009E80080BD00BF00A000089403002002A00008FA
:1009F800BC04002080B582B000AF104B1B681A46BB
:100A08000F4B1A6004F070F80E4B00221A600D4B61
:100A180000225A600B4B00229A6001233B603B681E
:100A280083F3108800BF084B7B607B6883F30888DA
:100A380000BF034B1B689847FEE700BF04D8FF1FA1
:100A4800B804002010E000E05812002080B487B0FD
:100A580000AFF860B9607A60FB70FB687B61644B3B
:100A680000221A70634B00221A70FB78002B5DD0AD
:100A7800BB681A687B691B689A4206D87B680022A3
:100A88001A605B4B01221A70ACE0BB681A687B697C
:100A98001B699A4207D3564B01221A707B684FF69E
:100AA800FF721A609EE0BB681A687B69DB689A422D
:100AB8001CD3BB681A687B69DB68D31A1A461346CD
:100AC8001B049B1A1A467B695B69B2FBF3F31A464F
:100AD8007B681A607B681B684FF6FE72934240F38E
:100AE80081807B684FF6FF721A607BE0BB681A68EA
:100AF8007B695B689A4275D27B695B681A46BB68FA
:100B08001B68D21A13461B049B1A1A467B699B68FA
:100B1800B2FBF3F35B421A467B681A607B681B687A
:100B2800002B5FDC7B6800221A605BE0BB681A68F8
:100B38007B699B699A4206D82E4B01221A707B6802
:100B480000221A604EE0BB681A687B699B6A9A4269
:100B580007D37B684FF6FF721A60264B01221A7082
:100B680040E0BB681A687B695B6A9A421BD3BB6822
:100B78001A687B695B6AD31A1A4613461B049B1AC8
:100B88001A467B69DB6AB2FBF3F31A467B681A6084
:100B98007B681B684FF6FE72934223DD7B684FF635
:100BA800FF721A601EE0BB681A687B69DB699A42AB
:100BB80018D27B69DB691A46BB681B68D21A1346D0
:100BC8001B049B1A1A467B691B6AB2FBF3F35B4250
:100BD8001A467B681A607B681B68002B02DC7B68FE
:100BE80000221A6000BF1C37BD465DF8047B7047C1
:100BF800C9000020CA00002080B485B000AF78602A
:100C080039607B68FB603B68BB60FB68DB88013B45
:100C18001A46BB685A60FB685B881A46BB681A604C
:100C2800BB685A68BB681B68D21ABB689A60FB68C5
:100C3800DB8801331A46BB68DA60FB689B881A4672
:100C4800BB681A61BB681A69BB68DB68D21ABB68E3
:100C58005A61FB685B891A46BB689A62FB689B8984
:100C680001331A46BB685A62BB689A6ABB685B6AFA
:100C7800D21ABB68DA62FB681B891A46BB689A619C
:100C8800FB689B89013B1A46BB68DA61BB68DA6975
:100C9800BB689B69D21ABB681A6200BF1437BD468D
:100CA8005DF8047B704780B489B000AFF860B96024
:100CB8007A603B600023FB61FB68BB61BB687B61BA
:100CC8000023FB6116E0BB691B683A68013A03FB25
:100CD80002F27B691B681A443B68B2FBF3F2BB69FA
:100CE8001A60BB690433BB617B6904337B61FB69B0
:100CF8000133FB61FA697B689A42E4D300BF00BF05
:100D08002437BD465DF8047B7047000080B500AF0E
:100D180001222749274805F07BFC0346002B01D018
:100D280001F098FA234805F0D0FD4FF47A71214874
:100D380005F0E6FD0346002B05D01F4B1B68013369
:100D48001D4A136008E01B4805F04FFE034603F5F3
:100D580000439BB2194A1360164805F02BFE012286
:100D68001749144805F054FC0346002B01D001F044
:100D780071FA104805F0A9FD4FF47A710D4805F095
:100D8800BFFD0346002B05D00B4B1B6801330A4AF5
:100D9800136008E0074805F028FE034603F5004302
:100DA8009BB2064A5360034805F004FE00BF80BDAD
:100DB80010000400E4040020E4000020CC0000201F
:100DC8002000050080B485B000AF7860974B2022E2
:100DD8005A80964B4FF090425A60944B4022DA82E8
:100DE800924B4FF090429A61904B08225A858F4B54
:100DF8004FF09042DA628D4B4FF48042DA878B4B8A
:100E08008B4A1A64894B0222A3F85220874B4FF071
:100E180090425A65854B0422A3F86620834B4FF015
:100E280090429A66814B0822A3F87A207F4B814A28
:100E3800DA677E4B0122A3F88E207C4B4FF090425C
:100E4800C3F89020794B4FF40042A3F8A220774BC7
:100E58004FF09042C3F8A420744B8022A3F8B62028
:100E6800724B754AC3F8B820704B4022A3F8CA20C9
:100E78006E4B714AC3F8CC206C4B4FF40072A3F848
:100E8800DE206A4B6B4AC3F8E020684B4FF480724F
:100E9800A3F8F220654B674AC3F8F420634B4FF47C
:100EA8008072A3F80621614B644AC3F808215F4B9E
:100EB8004022A3F81A215D4B5E4AC3F81C215B4B04
:100EC8008022A3F82E21594B5A4AC3F83021574B98
:100ED8004FF48042A3F84221544B564AC3F84421A8
:100EE800524B4FF40052A3F85621504B514AC3F8C5
:100EF80058214E4B1022A3F86A214C4B4FF09042D8
:100F0800C3F86C21494B4FF40042A3F87E21474BAC
:100F1800474AC3F88021454B0222A3F89221434B4C
:100F2800444AC3F89421414B0422A3F8A6213F4B1D
:100F3800404AC3F8A8213D4B4FF40042A3F8BA2118
:100F48003A4B3C4AC3F8BC21384B0122A3F8CE21C6
:100F5800364B384AC3F8D021344B4FF48052A3F8AB
:100F6800E221324B334AC3F8E421304B0822A3F87C
:100F7800F6212E4B2E4AC3F8F8212C4B4FF48062F1
:100F8800A3F80A22294B2B4AC3F80C22274B4FF40B
:100F98000062A3F81E22254B264AC3F82022234BC1
:100FA8004FF48072A3F83222204B4FF09042C3F8DE
:100FB80034221E4B4022A3F846221C4B1C4AC3F87D
:100FC80048221A4B2022A3F85A22184B184AC3F871
:100FD8005C22164B1022A3F86E22144B144AC3F855
:100FE80070227B68BB600023FB6014E0BB680022B2
:100FF8001A70BB6800225A70BB6800221A72BB685C
:101008000022DA60BB6814221A61BB681433BB6023
:10101800FB680133FB60FB681F2BE7D900BF00BFEB
:101028001437BD465DF8047B704700BFE800002018
:10103800000400480008004800140048000C00485C
:1010480080B485B000AF78607B68BB600023FB602C
:1010580053E0BB685B78002B4CD0BB681B7A002B35
:101068001FD1BB681B78002B17D1BB68DA68BB6837
:101078001B699A4204D2BB68DB685A1CBB68DA60F9
:10108800BB68DA68BB681B699A422DD3BB6800222B
:10109800DA60BB6801221A7226E0BB680022DA60B7
:1010A80022E0BB681B7A012B1ED1BB681B78012B81
:1010B80017D1BB68DA68BB681B699A4204D2BB685F
:1010C800DB685A1CBB68DA60BB68DA68BB681B69F6
:1010D8009A4209D3BB680022DA60BB6800221A7200
:1010E80002E0BB680022DA60BB6800225A70BB6865
:1010F8001433BB60FB680133FB60FB681F2BA8D966
:1011080000BF00BF1437BD465DF8047B704780B54B
:1011180084B000AF78607B68BB600023FB6014E09C
:10112800BB685A68BB685B881946104603F0A4FC84
:1011380003461A46BB681A70BB6801225A70BB681E
:101148001433BB60FB680133FB60FB681F2BE7D9D6
:1011580000BF00BF1037BD4680BD000080B400AF9F
:10116800024B1846BD465DF8047B7047E800002036
:1011780080B58EB000AFF860B9603B601346FB8065
:101188003B6C1B78002B00F003817B4B1B7883F0B2
:101198000103DBB2002B00F0FB80BB68B5221A709C
:1011A800764B93F820319B005AB2744B93F8F83081
:1011B800DB005BB213435AB2704B1B7ADB431B0153
:1011C8005BB203F010035BB213435AB2BB6801333E
:1011D800D2B21A70694B93F8E43003F00103002B84
:1011E8000CBF01230023DBB25AB2644B93F8BC3026
:1011F8009B005BB213435AB2604B93F830301B012B
:101208005BB213435AB2BB680233D2B21A705B4B5B
:1012180093F894305AB2594B93F86C305B005BB238
:1012280013435AB2554B93F844309B005BB21343B7
:101238005AB2524B1B7FDB005BB213435AB24F4B7F
:1012480093F8D0301B015BB213435AB24B4B93F85F
:10125800A8305B015BB213435AB2484B93F8803015
:101268009B015BB213435AB2444B93F85830DB01ED
:101278005BB213435AB2BB680333D2B21A70404B05
:101288001B78002B1AD13F4B1B681A0ABB68043322
:10129800D2B21A703B4B1A68BB680533D2B21A70C7
:1012A800384B5B681A0ABB680633D2B21A70354BE2
:1012B8005A68BB680733D2B21A7025E0324B1B68F4
:1012C800DB11DAB2BB68043302F01F02D2B21A7023
:1012D8002D4B1B68DAB2BB68053302F07F02D2B22D
:1012E8001A70294B5B68DB11DAB2BB68063302F06F
:1012F8001F02D2B21A70244B5B68DAB2BB6807339C
:1013080002F07F02D2B21A70BB68083300221A704A
:10131800BB68093300221A7001237B630EE0BB68A7
:1013280009331978BA687B6B13441A78BB68093398
:101338000A44D2B21A707B6B01337B637B6B082B38
:10134800EDD9BB6809331A78BB6809335242D2B267
:101358001A700E4B5A7ABB68093302F07F02D2B278
:101368001A703B680A22B968F86806F015F93B6CF0
:1013780000221A7085E100BF01000020E80000206B
:1013880000000020D4000020DC00002068030020BA
:101398003B6C1B78002B00F07481864B1B78002B6C
:1013A80000F06F81844B1B7A002B0CBF01230023B4
:1013B800DBB25AB2804B1B7F5B005BB213435AB25D
:1013C8007D4B93F830309B005BB213435AB27A4B93
:1013D80093F84430DB005BB213435AB2764B93F870
:1013E80058301B015BB213435AB2734B93F86C30FD
:1013F8005B015BB213435AB26F4B93F880309B0189
:101408005BB213435AB26C4B93F89430DB015BB276
:1014180013435BB2DAB2BB681A70674B93F8A83013
:101428005AB2654B93F8BC305B005BB213435AB2B7
:10143800614B93F8D0309B005BB213435BB25E4ABA
:1014480092F8E420002A01D1082200E00022134388
:101458005AB2594B93F8F8301B015BB213435AB296
:10146800554B93F80C315B015BB213435AB2524BA4
:1014780093F820319B015BB213435AB24E4B93F859
:101488003431DB015BB213435AB2BB680133D2B2C9
:101498001A70494B93F848315AB2474B93F85C316C
:1014A8005B005BB213435AB2434B93F870319B0015
:1014B8005BB213435AB2404B93F88431DB005BB202
:1014C80013435AB23C4B93F898311B015BB2134358
:1014D8005AB2394B93F8AC315B015BB213435AB241
:1014E800354B93F8C0319B015BB213435AB2324B70
:1014F80093F8D431DB015BB213435AB2BB680233B1
:10150800D2B21A702C4B93F8E8315AB22A4B93F89E
:10151800FC315B005BB213435AB2274B93F810328D
:101528009B005BB213435AB2234B93F82432DB007F
:101538005BB213435AB2204B93F838321B015BB2AB
:1015480013435AB21C4B93F84C325B015BB2134302
:101558005AB2194B93F860329B015BB213435AB2EB
:10156800154B93F87432DB015BB213435AB2BB6874
:101578000333D2B21A70114B1B78002B22D1104BB7
:101588001B681A0ABB680433D2B21A700C4B1A686B
:10159800BB680533D2B21A70094B5B681A0ABB687C
:1015A8000633D2B21A70064B5A68BB680733D2B2F8
:1015B8001A702DE001000020E80000200000002043
:1015C800D4000020314B1B68DB11DAB2BB6804334E
:1015D80002F01F02D2B21A702C4B1B68DAB2BB6839
:1015E800053302F07F02D2B21A70284B5B68DB1118
:1015F800DAB2BB68063302F01F02D2B21A70234B6C
:101608005B68DAB2BB68073302F07F02D2B21A70A5
:1016180007F11C0300221A605A609A60DA601A61A6
:101628005A6140F22133FB6100237B620023BB62D5
:101638000823FB62002387F83030BB681B783B75B2
:10164800BB685B787B75BB689B78BB75BB68DB78D0
:10165800FB75BB681B793B76BB685B797B76BB689F
:101668009B79BB76BB68DB79FB7607F1100307F142
:10167800140207F11C01064801F00AFF3B6C002226
:101688001A7000BF3837BD4680BD00BFDC0000209F
:10169800A000002080B500AF02F00CFF0A4B00222A
:1016A8001A60094B094A5A60074B01229A60084997
:1016B800054802F0C3FF0346002B00D0FEE702F006
:1016C8001FFF00BF80BD00BFCC04002000E0000861
:1016D800940300202DE9B04F8EB000AFF8620023CC
:1016E8003B63FB6A7B63FFF7D5FF02F0E3FE4FF035
:1016F80000024FF000033F49012002F06BFE7B6BB4
:101708001B889BB200221C46154622462B463A49A6
:10171800012002F05FFE7B6BDB889BB200229846BB
:10172800914642464B463549012002F053FE7B6BF9
:101738005B889BB200229A46934652465B463049E4
:10174800012002F047FE7B6B9B889BB200223B6224
:101758007A62D7E908232B49012002F03BFE7B6B14
:101768009B899BB20022BB61FA61D7E9062326490F
:10177800012002F02FFE7B6B1B899BB200223B618C
:101788007A61D7E904232149012002F023FE7B6B0B
:101798005B899BB20022BB60FA60D7E902231C492F
:1017A800012002F017FE00233B6315E03A6B194B4A
:1017B800134499003B6B184A04335B001344DB88DD
:1017C8009BB200223B607A60D7E90023012002F037
:1017D80001FE3B6B01333B633B6B1F2BE6D902F0E9
:1017E8008FFE0E4800F01CF800BF3837BD46BDE834
:1017F800B08F00BF00E0000802E0000804E0000825
:1018080006E0000808E000080AE000080CE000080C
:101818000EE000081438000298030020E8030020B6
:1018280080B485B000AF78600023BB607B68FB6044
:101838001F4B1B689AB2FB681A801E4B1B689AB232
:10184800FB68DA801C4B1B689AB2FB685A801B4BFA
:101858001B689AB2FB689A80194B1B689AB2FB689E
:101868009A81184B1B689AB2FB681A81164B1B6841
:101878009AB2FB685A810023BB600FE0BA68134B29
:1018880013449B001A68BB6891B2FA6804335B0082
:1018980013440A46DA80BB680133BB60BB681F2B60
:1018A800ECD900BF00BF1437BD465DF8047B704714
:1018B80002E0000804E0000806E0000808E000086C
:1018C8000AE000080CE000080EE0000814380002E6
:1018D80080B485B000AF78600023BB607B68FB6094
:1018E8001F4B1B689AB2FB681A801E4B1B689AB282
:1018F800FB68DA801C4B1B689AB2FB685A801B4B4A
:101908001B689AB2FB689A80194B1B689AB2FB68ED
:101918009A81184B1B689AB2FB681A81164B1B6890
:101928009AB2FB685A810023BB600FE0BB689A003B
:10193800124B13441A68BB6891B2FA6804335B000F
:1019480013440A46DA80BB680133BB60BB681F2BAF
:10195800ECD900BF00BF1437BD465DF8047B704763
:1019680000F0000802F0000804F0000806F0000883
:1019780008F000080AF000080CF000080EF0000853
:1019880080B584B000AFA5233B71FF237B71002392
:10199800BB710023FB7100233B7200237B72002381
:1019A800BB720023FB7201233B73391D41F288335C
:1019B8000922034805F0F0FD00BF1037BD4680BD81
:1019C8000406002080B584B000AF78600023FB6077
:1019D8007B6801331B78DD2B00F39D82BB2B05DA76
:1019E800042B00F38F80002B7CDC94E2BB3B222B82
:1019F80000F2918201A252F823F000BFFF1E0008F6
:101A08001F1F00081F1F00081F1F00081F1F0008B6
:101A18001F1F00081F1F00081F1F00081F1F0008A6
:101A28001F1F0008E31E00081F1F00081F1F0008D3
:101A38001F1F00081F1F00081F1F00081F1F000886
:101A4800191F00081F1F00081F1F00081F1F00087C
:101A58001F1F00081F1F00081F1F00081F1F000866
:101A68001F1F0008E91E00081F1F00081F1F00088D
:101A78001F1F00081F1F00081F1F00081F1F000846
:101A88001F1F0008F31E0008713B122B00F243824F
:101A980001A252F823F000BF3F1D0008EB1D00080B
:101AA800671E00081F1F00081F1F00081F1F0008CF
:101AB8001F1F00081F1F00081F1F00081F1F000806
:101AC8001F1F00081F1F00081F1F00081F1F0008F6
:101AD8001F1F00081F1F0008DF1B0008471C000805
:101AE800C31C0008013B032B00F2158201A252F827
:101AF80023F000BF191B00082B1B0008851B0008DA
:101B08001D1F0008832B00F30682712BBCDA02E24A
:101B18007B6802331B789AB2954B1A80FFF730FF27
:101B2800F9E17B6802331B781B021AB27B68033326
:101B38001B781BB213431BB29AB28D4B9A807B68F9
:101B480004331B781B021AB27B6805331B781BB25F
:101B580013431BB29AB2864B5A807B6806331B78B4
:101B68001B021AB27B6807331B781BB213431BB2E4
:101B78009AB27F4BDA80FFF703FFCCE17B68023330
:101B88001B781B021AB27B6803331B781BB2134302
:101B98001BB29AB2764B5A817B6804331B781B02BE
:101BA8001AB27B6805331B781BB213431BB29AB277
:101BB8006F4B1A817B6806331B781B021AB27B684D
:101BC80007331B781BB213431BB29AB2684B9A8136
:101BD800FFF7D6FE9FE1674BA5221A70654B81225D
:101BE8005A70654B1B68DAB2624B9A70614B0022DF
:101BF800DA70604B00221A715E4B00225A715D4BFD
:101C080000229A715B4B0022DA710123FB600BE022
:101C1800FB68584AD25C574B1B7A1344DAB2554BCF
:101C28001A72FB680133FB60FB68072BF0D941F29D
:101C3800883309224F49514805F0AEFC6BE14D4B02
:101C4800A5221A704B4B82225A704D4B1B68DAB290
:101C5800484B9A704B4B1B68DAB2464BDA704A4BCA
:101C68001B68DAB2434B1A71484B1B68DAB2414B16
:101C78005A71474B1B68DAB23E4B9A71454B1B6849
:101C8800DAB23C4BDA710123FB600BE0FB68394A9E
:101C9800D25C384B1B7A1344DAB2364B1A72FB68A3
:101CA8000133FB60FB68072BF0D941F28833092226
:101CB8003049324805F070FC2DE12E4BA5221A70F0
:101CC8002C4B83225A70344B1B68DAB2294B9A701A
:101CD800324B1B68DAB2274BDA70314B1B68DAB229
:101CE800244B1A712F4B1B68DAB2224B5A712E4BB8
:101CF8001B68DAB21F4B9A712C4B1B68DAB21D4B6A
:101D0800DA710123FB600BE0FB681A4AD25C194BBD
:101D18001B7A1344DAB2174B1A72FB680133FB6063
:101D2800FB68072BF0D941F288330922114913487F
:101D380005F032FCEFE00F4BA5221A700D4B712213
:101D48005A701B4B1B68DAB20A4B9A70094B002277
:101D5800DA70084B00221A71064B00225A71054BA3
:101D680000229A71034B0022DA710123FB602DE0F7
:101D7800980300207403002002E0000804060020F5
:101D880009E0000808E0000807E0000806E000088D
:101D980005E0000804E000080FE000080EE0000875
:101DA8000DE000080CE000080BE000080AE000085D
:101DB80000F00008FB685A4AD25C594B1B7A13445E
:101DC800DAB2574B1A72FB680133FB60FB68072BCA
:101DD800F0D941F2883309225149524805F0DCFB19
:101DE80099E04F4BA5221A704D4B72225A704E4BF8
:101DF8001B68DAB24A4B9A704C4B1B68DAB2484BF4
:101E0800DA704B4B1B68DAB2454B1A71494B1B68A9
:101E1800DAB2434B5A71484B1B68DAB2404B9A719D
:101E2800464B1B68DAB23E4BDA710123FB600BE0CC
:101E3800FB683B4AD25C3A4B1B7A1344DAB2384B04
:101E48001A72FB680133FB60FB68072BF0D941F27B
:101E5800883309223249334805F09EFB5BE0304B5A
:101E6800A5221A702E4B73225A70354B1B68DAB2B2
:101E78002B4B9A70334B1B68DAB2294BDA70324B12
:101E88001B68DAB2264B1A71304B1B68DAB2244B46
:101E98005A712F4B1B68DAB2214B9A712D4B1B6874
:101EA800DAB21F4BDA710123FB600BE0FB681C4AB6
:101EB800D25C1B4B1B7A1344DAB2194B1A72FB68BB
:101EC8000133FB60FB68072BF0D941F28833092204
:101ED8001349144805F060FB1DE0FEF757FD1AE0B2
:101EE800FFF74EFD02F037F815E01B4B00221A7081
:101EF800FFF746FD0FE01948FFF7ECFB18491948B2
:101F0800FEF77AFE144B01221A70FFF739FD02E042
:101F180000BF00E000BF00BF1037BD4680BD00BF56
:101F2800740300200406002007F0000806F00008EB
:101F380005F0000804F0000803F0000802F00008AB
:101F48000DF000080CF000080BF000080AF000087B
:101F580009F0000808F0000800000020980300209D
:101F680088040020E803002080B58CB000AF7860BA
:101F780007F10C0307F114020021786801F058FBFF
:101F88000346002B10D1FB69002B0ED13B6A002BB6
:101F98000BD17B6940F20112934206D107F10C0381
:101FA8001846FFF70FFD00E000BF3037BD4680BD83
:101FB80080B584B000AF7860324B1A78324B1A7013
:101FC800324B1B68002B0DD12E4B1B78A52B09D14A
:101FD8002C4B1A782E4B1A702C4B1B6801332B4A4A
:101FE80013604BE0294B1B68002B0FD0274B1B6855
:101FF800072B0BD8254B1B68224A1178244AD15449
:10200800224B1B680133214A136037E01F4B1B68C2
:10201800082B2FD11F4B00221A701C4B1B68194A22
:1020280011781B4AD1540123FB600CE0184AFB6865
:1020380013441A78174B1B781344DAB2154B1A70ED
:10204800FB680133FB60FB68082BEFD9114B1B7849
:10205800002B06D10E48FFF7B5FC0C4B00221A6086
:1020680004E00D4B1B6801330B4A1360074B002239
:102078001A6003E0054B00221A60FFE700BF103723
:10208800BD4680BD7F0300207E0300208003002022
:10209800840300208D030020900300202DE9B04F19
:1020A8008CB000AF0023FB625F4A002313805E4AB6
:1020B80048F2840313815C4A4FF6FF7353815A4AEE
:1020C8004CF244039381584A48F284035380564A99
:1020D8004FF6FF739380544A4CF24403D380002395
:1020E800FB6209E05049FB6A04335A000A4414238E
:1020F800D380FB6A0133FB62FB6A1F2BF2D90023F2
:10210800BB6202F0D7F9494A00231360474A484B9B
:102118005360464A012393604649444802F08EFAC8
:102128000346002B01D000F095F83F4B1B889BB26B
:102138009BB200221C46154622462B463C490120EC
:1021480002F048F9384BDB889BB29BB200229846D4
:10215800914642464B463849012002F03BF9324B42
:102168005B889BB29BB200229A46934652465B46D6
:102178003249012002F02EF92B4B9B889BB29BB26F
:1021880000223B627A62D7E908232D49012002F038
:1021980021F9254B9B899BB29BB20022BB61FA6156
:1021A800D7E906232749012002F014F91E4B1B89A1
:1021B8009BB29BB200223B617A61D7E90423224992
:1021C800012002F007F9184B5B899BB29BB20022F1
:1021D800BB60FA60D7E902231C49012002F0FAF833
:1021E8000023BB6216E0BB6A9B0019491944BB6A0D
:1021F8000D4A04335B001344DB889BB29BB2002278
:102208003B607A60D7E90023012002F0E3F8BB6A5B
:102218000133BB62BB6A1F2BE5D902F071F900BF1D
:102228003037BD46BDE8B08F38040020D804002000
:1022380000F000089403002002F0000804F00008F1
:1022480006F0000808F000080AF000080CF0000882
:102258000EF0000880B400AF72B600BFFEE70000C1
:1022680080B584B000AF3B4600221A605A609A607D
:10227800DA603B4B3B4A1A60394B00225A60384BB4
:1022880000229A60364B0022DA60354B00221A6130
:10229800334B0022DA62324804F09EF80346002BE2
:1022A80001D0FFF7D7FF00212D4804F061FA03465B
:1022B800002B01D0FFF7CEFF0021294804F028FAAF
:1022C8000346002B01D0FFF7C5FF0022264924480A
:1022D80004F0E2F90346002B01D0FFF7BBFF4FF0F3
:1022E80080633B6000237B600023BB600023FB60AE
:1022F8003B461A4600211A4804F0FEF80346002B14
:1023080001D0FFF7A7FF00221849154804F030F95B
:102318000346002B01D0FFF79DFF00221449104807
:1023280004F026F90346002B01D0FFF793FF0022A3
:1023380010490B4804F01CF90346002B01D0FFF7A5
:1023480089FF00220C49064804F012F90346002BC5
:1023580001D0FFF77FFF00BF1037BD4680BD00BF2B
:10236800E404002000600140B0010F008000070075
:1023780000010800100004002000050080B58AB0A4
:1023880000AF786007F1140300221A605A609A605F
:10239800DA601A617B681B68364A934265D1364B0E
:1023A8009B69354A43F080739361334B9B6903F013
:1023B80080733B613B69304B5B692F4A43F4802350
:1023C80053612D4B5B6903F48023FB60FB682A4B48
:1023D8005B69294A43F400135361274B5B6903F493
:1023E8000013BB60BB6806237B610323BB6100232A
:1023F800FB6107F114031946204802F0C3F94FF4B2
:1024080040737B610323BB610023FB6107F1140365
:1024180019461B4802F0B6F91A4B1B4A1A60194BA9
:1024280000225A60174B00229A60164B8022DA600D
:10243800144B4FF480721A61124B4FF480625A6148
:10244800104B20229A610F4B4FF40052DA610D486D
:1024580001F091FD0346002B01D0FFF7FBFE7B68DE
:10246800084A5A61074A7B68536200BF2837BD464D
:1024780080BD00BF00600140001002400004004819
:1024880000100048280500203004024080B483B0C2
:1024980000AF0F4B9B690E4A43F0010393610C4B4D
:1024A8009B6903F001037B607B68094BDB69084A81
:1024B80043F08053D361064BDB6903F080533B60E4
:1024C8003B6800BF0C37BD465DF8047B704700BF12
:1024D8000010024080B400AFFEE780B400AFFEE712
:1024E80080B400AFFEE780B400AFFEE780B400AF71
:1024F800FEE780B400AF00BFBD465DF8047B7047BF
:1025080080B400AF00BFBD465DF8047B704780B45F
:1025180000AF00BFBD465DF8047B704780B500AFD3
:1025280000F068FA00BF80BD80B500AF024801F036
:1025380044FE00BF80BD00BF5C00002080B500AF36
:10254800024801F03AFE00BF80BD00BF8C060020A3
:1025580080B500AF024801F0B3F900BF80BD00BFED
:10256800A000002080B582B002AF094B01221A708A
:10257800074B009341F288330A2206490648FEF7C2
:10258800F7FD064804F008FC00BFBD4680BD00BF4B
:102598007D03002068030020040600206C0500204D
:1025A80080B500AF064B01221A70FEF7D7FD03462F
:1025B8001846FEF7ACFD034804F0EEFB00BF80BDF3
:1025C800C8000020B805002080B500AF024805F01B
:1025D800B1F800BF80BD00BF0406002080B500AF81
:1025E800024801F0EAFD00BF80BD00BF28050020B9
:1025F80080B400AF064BD3F88830054A43F4700323
:10260800C2F8883000BFBD465DF8047B704700BF44
:1026180000ED00E080B586B000AF07F108030022A6
:102628001A605A609A60DA603B4600221A605A6063
:102638001D4B4FF080421A601B4B4BF680325A609C
:10264800194B00229A60184B0422DA60164B0022BC
:102658001A61154B00229A61134804F0E5FA034603
:10266800002B01D0FFF7F6FD4FF48053BB6007F154
:10267800080319460C4804F07FFC0346002B01D0E0
:10268800FFF7E8FD00233B6000237B603B461946CB
:10269800054804F0ABFE0346002B01D0FFF7DAFD36
:1026A80000BF1837BD4680BD6C05002080B586B0D8
:1026B80000AF07F1080300221A605A609A60DA60D6
:1026C8003B4600221A605A601D4B1E4A1A601C4B7A
:1026D8004FF496525A601A4B00229A60184B042203
:1026E800DA60174B00221A61154B00229A611448D0
:1026F80004F09AFA0346002B01D0FFF7ABFD4FF424
:102708008053BB6007F1080319460D4804F034FCF8
:102718000346002B01D0FFF79DFD00233B600023FB
:102728007B603B461946064804F060FE0346002BD2
:1027380001D0FFF78FFD00BF1837BD4680BD00BF31
:10274800B80500200004004080B584B000AF786070
:102758007B681B68B3F1804F14D1194BDB69184AA9
:1027680043F00103D361164BDB6903F00103FB60FF
:10277800FB68002200211C2001F0C3FB1C2001F093
:10278800DCFB18E07B681B680E4A934213D10C4BA4
:10279800DB690B4A43F00203D361094BDB6903F0A1
:1027A8000203BB60BB68002200211D2001F0A9FBC9
:1027B8001D2001F0C2FB00BF1037BD4680BD00BF21
:1027C800001002400004004080B500AF144B154AC9
:1027D8001A60134B4FF4E1325A60114B00229A6091
:1027E8000F4B0022DA600E4B00221A610C4B0C22B0
:1027F8005A610B4B00229A61094B0022DA61084B9F
:1028080000221A62064B00225A62054804F076FE3E
:102818000346002B01D0FFF71DFD00BF80BD00BFA0
:10282800040600200038014080B58AB000AF786007
:1028380007F1140300221A605A609A60DA601A617C
:102848007B681B682F4A934258D12F4B9B692E4AAD
:1028580043F4804393612C4B9B6903F480433B61B1
:102868003B69294B5B69284A43F400335361264B83
:102878005B6903F40033FB60FB684FF4C0637B6162
:102888000223BB610023FB6103233B6207237B62B6
:1028980007F1140319464FF0904001F073FF1B4BEA
:1028A8001B4A1A60194B00225A60184B00229A6082
:1028B800164B8022DA60154B00221A61134B002256
:1028C8005A61124B20229A61104B4FF44052DA6140
:1028D8000E4801F050FB0346002B01D0FFF7BAFC6D
:1028E8007B680A4A5A67094A7B68536200220021BA
:1028F800252001F006FB252001F01FFB00BF28372B
:10290800BD4680BD00380140001002408C06002002
:1029180058000240DFF834D0FFF76AFE0C480D4932
:102928000D4A002302E0D458C4500433C4188C4222
:10293800F9D30A4A0A4C002301E013600432A24288
:10294800FBD305F0A7FFFDF7E7FEFEE700400020F8
:1029580000000020100000203C8900081000002022
:10296800F8060020FEE7000080B500AF084B1B68A2
:10297800074A43F010031360032001F0B7FA002060
:1029880000F008F8FFF782FD0023184680BD00BF5D
:102998000020024080B582B000AF7860124B1A6800
:1029A800124B1B7819464FF47A73B3FBF1F3B2FB61
:1029B800F3F3184601F0D3FA0346002B01D00123A4
:1029C8000EE07B680F2B0AD8002279684FF0FF30A1
:1029D80001F097FA064A7B681360002300E00123A0
:1029E80018460837BD4680BD040000200C000020B2
:1029F8000800002080B400AF064B1B781A46064B2F
:102A08001B681344044A136000BFBD465DF8047B8D
:102A1800704700BF0C000020D006002080B400AF33
:102A2800034B1B681846BD465DF8047B704700BF22
:102A3800D006002080B584B000AF7860FFF7EEFFC5
:102A4800B8607B68FB60FB68B3F1FF3F05D00A4BB9
:102A58001B781A46FB681344FB6000BFFFF7DEFFD4
:102A68000246BB68D31AFA689A42F7D800BF00BF7B
:102A78001037BD4680BD00BF0C00002080B586B071
:102A880000AF78600023FB7500233B610023BB6027
:102A98000023FB607B68002B01D10123BEE07B682B
:102AA8009B68002B7B689B6A002B09D17B680022FE
:102AB800DA627B68002283F824207868FDF7EAFB55
:102AC800786800F09BFA0346FB757B689B6A03F005
:102AD8001003002B40F09980FB7D002B40F095807F
:102AE8007B689B6A23F4885323F0020343F00202B5
:102AF8007B689A627B685A687B68DB691A437B68E3
:102B08001B7B5B001343BA681343BB607B689B68FD
:102B1800B3F5807F03D07B689B68012B02D14FF40B
:102B2800807300E000233A6913433B617B681B7D97
:102B3800012B19D17B681B7B002B09D17B689B6912
:102B4800013B5A033B69134343F400633B610BE0C9
:102B58007B689B6A43F020027B689A627B68DB6A29
:102B680043F001027B68DA627B681B685B6823F4C8
:102B780069417B681B683A690A435A607B681B682D
:102B88009A68284B13407A681268B9680B439360B7
:102B98007B689B68B3F5807F03D07B689B68012BBB
:102BA80004D17B681B69013B1B05FB607B681B68C4
:102BB800DB6A23F470017B681B68FA680A43DA62EF
:102BC8007B681B689A68184B1340BA689A420BD105
:102BD8007B680022DA627B689B6A23F0030343F078
:102BE80001027B689A6218E07B689B6A23F01203F3
:102BF80043F010027B689A627B68DB6A43F001024B
:102C08007B68DA620123FB7507E07B689B6A43F007
:102C180010027B689A620123FB75FB7D1846183702
:102C2800BD4680BDFDF7E1FFFE0E1FFF80B586B0F3
:102C380000AF78600023FB750023FB607B6893F886
:102C48002430012B01D102238AE07B68012283F81A
:102C58002420786800F0D2F90346FB75FB7D002B31
:102C680079D17B689B6A23F4885323F0020343F0ED
:102C780002027B689A6202E0FB680133FB60FB6832
:102C8800FF2BF9D9786800F05FF97B681B689A68B0
:102C98007B681B6842F008029A60FFF7BFFE386144
:102CA8001BE0FFF7BBFE02463B69D31A0A2B14D977
:102CB8007B681B689B6803F00803082B0DD17B68B1
:102CC8009B6A23F0120343F010027B689A627B68C8
:102CD800002283F82420012342E07B681B689B685C
:102CE80003F00803082BDCD07B681B689A687B68B4
:102CF8001B6842F004029A60FFF790FE38611BE0FF
:102D0800FFF78CFE02463B69D31A0A2B14D97B685D
:102D18001B689B6803F00403042B0DD17B689B6A36
:102D280023F0120343F010027B689A627B6800224A
:102D380083F82420012313E07B681B689B6803F059
:102D48000403042BDCD07B689B6A23F0030343F065
:102D580001027B689A627B68002283F82420FB7D4D
:102D680018461837BD4680BD80B485B000AF78607E
:102D780039600023FB730023BB607B6893F8243021
:102D8800012B01D10223D2E07B68012283F82420A1
:102D98003B685B68062B1CD87B681B68596B3B68D3
:102DA8005A6813469B001344053B1F2202FA03F39B
:102DB800DB4319403B6818683B685A6813469B0018
:102DC8001344053B00FA03F27B681B680A435A6305
:102DD8003CE03B685B680C2B1CD87B681B68196B54
:102DE8003B685A6813469B001344233B1F2202FA90
:102DF80003F3DB4319403B6818683B685A6813467D
:102E08009B001344233B00FA03F27B681B680A43C8
:102E18001A631BE07B681B68D96A3B685A681346CB
:102E28009B001344413B1F2202FA03F3DB43194082
:102E38003B6818683B685A6813469B001344413B3B
:102E480000FA03F27B681B680A43DA623B681B6876
:102E58000A2B1CD97B681B68D9683B681A6813461B
:102E68005B0013441E3B072202FA03F3DB431940BD
:102E78003B6898683B681A6813465B0013441E3B1E
:102E880000FA03F27B681B680A43DA6019E07B6882
:102E98001B6819693B681A6813465B0013440722CC
:102EA80002FA03F3DB4319403B6898683B681A68E9
:102EB80013465B00134400FA03F27B681B680A435D
:102EC8001A613B681B68102B03D03B681B68112BE9
:102ED8001ED17B681B689A687B681B6842F40002F5
:102EE8009A603B681B68102B1CD1144B1B68144A52
:102EF800A2FB03239A0C13469B0013445B00BB60A0
:102F080002E0BB68013BBB60BB68002BF9D109E05C
:102F18003B681B68122B05D10A4B1B68094A43F012
:102F2800807313607B68002283F82420FB7B18469B
:102F38001437BD465DF8047B704700BF04000020CD
:102F480083DE1B430000014080B584B000AF786089
:102F58000023FB600023BB607B681B689B6803F051
:102F68000103012B40D07B681B689A687B681B684B
:102F780042F001029A601F4B1B681F4AA2FB032301
:102F88009B0CBB6002E0BB68013BBB60BB68002BCD
:102F9800F9D1FFF743FDF8601FE0FFF73FFD024658
:102FA800FB68D31A022B18D97B681B689B6803F04F
:102FB8000103012B11D07B689B6A43F010027B68E8
:102FC8009A627B68DB6A43F001027B68DA627B689D
:102FD800002283F82420012307E07B681B689B6894
:102FE80003F00103012BD8D1002318461037BD4642
:102FF80080BD00BF0400002083DE1B4380B584B081
:1030080000AF78600023FB607B681B689B6803F057
:103018000103012B2ED17B681B689A687B681B68AB
:1030280022F001029A60FFF7F9FCF8601BE0FFF755
:10303800F5FC0246FB68D31A022B14D97B681B687F
:103048009B6803F00103012B0DD17B689B6A43F059
:1030580010027B689A627B68DB6A43F001027B6836
:10306800DA62012307E07B681B689B6803F00103B1
:10307800012BDCD0002318461037BD4680BD80B533
:1030880084B000AF78607B68002B01D10123EDE0AC
:103098007B6893F82030DBB2002B02D17868FDF70B
:1030A800CFF97B681B681A687B681B6842F00102CD
:1030B8001A60FFF7B3FCF86012E0FFF7AFFC0246B6
:1030C800FB68D31A0A2B0BD97B685B6A43F400327E
:1030D8007B685A627B68052283F820200123C5E0BB
:1030E8007B681B685B6803F00103002BE5D07B68F5
:1030F8001B681A687B681B6822F002021A60FFF7D7
:103108008DFCF86012E0FFF789FC0246FB68D31AD1
:103118000A2B0BD97B685B6A43F400327B685A62DE
:103128007B68052283F8202001239FE07B681B68C9
:103138005B6803F00203002BE5D17B681B7E012B43
:1031480008D17B681B681A687B681B6842F080029C
:103158001A6007E07B681B681A687B681B6822F0A6
:1031680080021A607B685B7E012B08D17B681B6834
:103178001A687B681B6842F040021A6007E07B68A7
:103188001B681A687B681B6822F040021A607B681B
:103198009B7E012B08D17B681B681A687B681B68BB
:1031A80042F020021A6007E07B681B681A687B6897
:1031B8001B6822F020021A607B68DB7E012B08D195
:1031C8007B681B681A687B681B6822F010021A600B
:1031D80007E07B681B681A687B681B6842F010026E
:1031E8001A607B681B7F012B08D17B681B681A68F3
:1031F8007B681B6842F008021A6007E07B681B685E
:103208001A687B681B6822F008021A607B685B7F7B
:10321800012B08D17B681B681A687B681B6842F021
:1032280004021A6007E07B681B681A687B681B68E1
:1032380022F004021A607B689A687B68DB681A438C
:103248007B681B691A437B685B6942EA03017B68F8
:103258005B685A1E7B681B680A43DA617B68002238
:103268005A627B68012283F8202000231846103711
:10327800BD4680BD80B487B000AF786039607B6898
:103288001B687B617B6893F82030FB74FB7C012B07
:1032980003D0FB7C022B40F0AA807B69D3F8003274
:1032A80043F001027B69C3F800223B685B6903F0C5
:1032B8001F03012202FA03F3FB607B69D3F81C2287
:1032C800FB68DB431A407B69C3F81C223B68DB6957
:1032D800002B23D17B69D3F80C22FB68DB431A400F
:1032E8007B69C3F80C223B68DB6819043B685B68A0
:1032F8009BB23A68526919437B69483243F83210E5
:103308003B689B6819043B681B689AB23B685B6919
:103318000A4379694833DB000B445A603B68DB6930
:10332800012B22D17B69D3F80C22FB681A437B69F5
:10333800C3F80C223B681B6819043B685B689BB2A6
:103348003A68526919437B69483243F832103B683E
:103358009B6819043B68DB689AB23B685B690A435F
:1033680079694833DB000B445A603B689B69002B42
:1033780009D17B69D3F80422FB68DB431A407B69D7
:10338800C3F8042207E07B69D3F80422FB681A43D8
:103398007B69C3F804223B681B69002B09D17B6950
:1033A800D3F81422FB68DB431A407B69C3F8142264
:1033B80007E07B69D3F81422FB681A437B69C3F8DA
:1033C80014223B681B6A012B07D17B69D3F81C22A6
:1033D800FB681A437B69C3F81C227B69D3F8003267
:1033E80023F001027B69C3F80022002306E07B6812
:1033F8005B6A43F480227B685A62012318461C37B3
:10340800BD465DF8047B704780B584B000AF786036
:103418007B6893F82030DBB2012B2ED17B68022227
:1034280083F820207B681B681A687B681B6822F079
:1034380001021A60FFF7F2FAF86012E0FFF7EEFAFD
:103448000246FB68D31A0A2B0BD97B685B6A43F4E4
:1034580000327B685A627B68052283F820200123AA
:1034680012E07B681B685B6803F00103002BE5D161
:103478007B6800225A62002306E07B685B6A43F49B
:1034880000227B685A62012318461037BD4680BD6A
:1034980080B489B000AFF860B9607A603B60FB68BF
:1034A80093F82030FB77FB681B689B68BB61FB7F48
:1034B800012B03D0FB7F022B40F0AD80BB6903F0EA
:1034C8008063002B0AD1BB6903F00063002B05D190
:1034D800BB6903F08053002B00F09580BB691B0E7D
:1034E80003F003037B6101227B699A403B681A6001
:1034F800BB689B68002B0DD1BB681B685A05BB686D
:10350800DB68F96809681A437B6918331B010B44A7
:103518001A600FE0BB685B68DA00BB689B681A43F7
:10352800BB68DB68F96809681A437B6918331B01B3
:103538000B441A60FB681968BB681A697B69183301
:103548001B010B4404331A60BB681B7D012B11D18E
:10355800FB681A687B6918331B01134404331B6822
:10356800FA68116843F480727B6918331B010B44B5
:1035780004331A607B6807331B781A067B680633A6
:103588001B781B041A437B6805331B781B02134303
:103598007A68043212781046FA68116843EA000221
:1035A8007B691B010B4403F5C6731A607B68033300
:1035B8001B781A067B6802331B781B041A437B6846
:1035C80001331B781B0213437A6812781046FA6895
:1035D800116843EA00027B691B010B4403F5C473BD
:1035E8001A60FB681A687B6918331B0113441B684F
:1035F800FA68116843F001027B6918331B010B4418
:103608001A6000230EE0FB685B6A43F40012FB6853
:103618005A62012306E0FB685B6A43F48022FB6878
:103628005A62012318462437BD465DF8047B70476B
:1036380080B487B000AFF860B9607A603B60FB681F
:1036480093F82030FB75FB7D012B03D0FB7D022B0B
:1036580040F00381BB68002B0ED1FB681B68DB6858
:1036680003F00303002B16D1FB685B6A43F40012D6
:10367800FB685A620123F7E0FB681B681B6903F0CB
:103688000303002B07D1FB685B6A43F40012FB6855
:103698005A620123E8E0FB681A68BB681B331B0108
:1036A80013441B6803F004027B689A607B689B687C
:1036B800002B0CD1FB681A68BB681B331B01134431
:1036C8001B685B0DC3F30A027B681A600BE0FB689A
:1036D8001A68BB681B331B0113441B68DB0823F003
:1036E80060427B685A60FB681A68BB681B331B0121
:1036F80013441B6803F002027B68DA60FB681A68EF
:10370800BB681B331B01134404331B6803F0080315
:10371800002B03D07B6808221A610BE0FB681A684B
:10372800BB681B331B01134404331B6803F00F02EF
:103738007B681A61FB681A68BB681B331B0113445A
:1037480004331B681B0ADAB27B689A61FB681A6843
:10375800BB681B331B01134404331B681B0C9AB250
:103768007B685A61FB681A68BB681B01134403F540
:10377800DC731B68DAB23B681A70FB681A68BB68AE
:103788001B01134403F5DC731B681A0A3B680133F9
:10379800D2B21A70FB681A68BB681B01134403F5A0
:1037A800DC731B681A0C3B680233D2B21A70FB68D0
:1037B8001A68BB681B01134403F5DC731B681A0EF7
:1037C8003B680333D2B21A70FB681A68BB681B01E6
:1037D800134403F5DE731A683B680433D2B21A70D7
:1037E800FB681A68BB681B01134403F5DE731B688A
:1037F8001A0A3B680533D2B21A70FB681A68BB68AC
:103808001B01134403F5DE731B681A0C3B6806336F
:10381800D2B21A70FB681A68BB681B01134403F51F
:10382800DE731B681A0E3B680733D2B21A70BB6886
:10383800002B08D1FB681B68DA68FB681B6842F03C
:103848002002DA6007E0FB681B681A69FB681B68DE
:1038580042F020021A61002306E0FB685B6A43F429
:103868008022FB685A62012318461C37BD465DF862
:10387800047B704780B485B000AF786039607B689E
:1038880093F82030FB73FB7B012B02D0FB7B022BD0
:1038980009D17B681B6859697B681B683A680A43C9
:1038A8005A61002306E07B685B6A43F480227B68E8
:1038B8005A62012318461437BD465DF8047B7047E9
:1038C80080B58AB000AF786000237B627B681B6894
:1038D8005B693B627B681B685B68FB617B681B6894
:1038E8009B68BB617B681B68DB687B617B681B68C6
:1038F8001B693B617B681B689B69FB603B6A03F043
:103908000103002B7CD0BB6903F00103002B23D0FB
:103918007B681B6801229A60BB6903F00203002BD5
:1039280003D0786800F083F916E0BB6903F004035C
:10393800002B04D07B6A43F400637B620CE0BB6914
:1039480003F00803002B04D07B6A43F480537B62A6
:1039580002E0786800F089F9BB6903F48073002BF2
:1039680024D07B681B684FF480729A60BB6903F4AB
:103978000073002B03D0786800F063F916E0BB6988
:1039880003F48063002B04D07B6A43F400537B620A
:103998000CE0BB6903F40063002B04D07B6A43F49A
:1039A80080437B6202E0786800F069F9BB6903F440
:1039B8008033002B24D07B681B684FF480329A60D8
:1039C800BB6903F40033002B03D0786800F043F997
:1039D80016E0BB6903F48023002B04D07B6A43F410
:1039E80000437B620CE0BB6903F40023002B04D086
:1039F8007B6A43F480337B6202E0786800F049F91F
:103A08003B6A03F00803002B0CD07B6903F010031A
:103A1800002B07D07B6A43F400737B627B681B68CA
:103A28001022DA603B6A03F00403002B0BD07B6999
:103A380003F00803002B06D07B681B680822DA60B5
:103A4800786800F030F93B6A03F00203002B09D0D4
:103A58007B681B68DB6803F00303002B02D07868DF
:103A6800FEF782FA3B6A03F04003002B0CD03B6957
:103A780003F01003002B07D07B6A43F480637B625A
:103A88007B681B6810221A613B6A03F02003002B35
:103A98000BD03B6903F00803002B06D07B681B683A
:103AA80008221A61786800F012F93B6A03F01003E3
:103AB800002B09D07B681B681B6903F00303002BEC
:103AC80002D0786800F0F9F83B6A03F40033002B61
:103AD8000BD0FB6903F01003002B06D07B681B6832
:103AE80010225A60786800F0FCF83B6A03F48033CF
:103AF800002B0BD0FB6903F00803002B06D07B6872
:103B08001B6808225A60786800F0F5F83B6A03F4ED
:103B18000043002B7BD0FB6903F00403002B72D019
:103B28003B6A03F48073002B08D0FB6803F00103A1
:103B3800002B03D07B6A43F001037B623B6A03F4EA
:103B48000073002B08D0FB6803F00203002B03D09E
:103B58007B6A43F002037B623B6A03F48063002BB9
:103B680008D0FB6803F00403002B03D07B6A43F002
:103B780004037B623B6A03F40063002B43D0FB68B9
:103B880003F07003002B3ED0FB6803F07003602B3A
:103B98002BD0602B2ED8502B22D0502B2AD8402B3C
:103BA80019D0402B26D8302B10D0302B22D8102BF0
:103BB80002D0202B05D01DE07B6A43F008037B620E
:103BC80019E07B6A43F010037B6214E07B6A43F0E0
:103BD80020037B620FE07B6A43F040037B620AE0CC
:103BE8007B6A43F080037B6205E07B6A43F4807361
:103BF8007B6200E000BF7B681B689A697B681B6872
:103C080022F070029A617B681B6804225A607B6A02
:103C1800002B08D07B685A6A7B6A1A437B685A6211
:103C2800786800F072F800BF2837BD4680BD80B4C0
:103C380083B000AF786000BF0C37BD465DF8047BE9
:103C4800704780B483B000AF786000BF0C37BD46C2
:103C58005DF8047B704780B483B000AF786000BF24
:103C68000C37BD465DF8047B704780B483B000AF65
:103C7800786000BF0C37BD465DF8047B704780B4A0
:103C880083B000AF786000BF0C37BD465DF8047B99
:103C9800704780B483B000AF786000BF0C37BD4672
:103CA8005DF8047B704780B483B000AF786000BFD4
:103CB8000C37BD465DF8047B704780B483B000AF15
:103CC800786000BF0C37BD465DF8047B704780B450
:103CD80083B000AF786000BF0C37BD465DF8047B49
:103CE800704780B483B000AF786000BF0C37BD4622
:103CF8005DF8047B704780B483B000AF786000BF84
:103D08000C37BD465DF8047B704780B483B000AFC4
:103D1800786000BF0C37BD465DF8047B7047000033
:103D280080B485B000AF78607B6803F00703FB6060
:103D38000C4BDB68BB60BA684FF6FF031340BB60EF
:103D4800FB681A02BB68134343F0BF6343F40033B4
:103D5800BB60044ABB68D36000BF1437BD465DF83A
:103D6800047B704700ED00E080B400AF044BDB68D3
:103D78001B0A03F007031846BD465DF8047B70472D
:103D880000ED00E080B483B000AF0346FB7197F903
:103D98000730002B0BDBFB7903F01F02074997F96B
:103DA80007305B09012000FA02F241F8232000BF26
:103DB8000C37BD465DF8047B704700BF00E100E0AA
:103DC80080B483B000AF03463960FB7197F90730C0
:103DD800002B0ADB3B68DAB20C4997F9073012016D
:103DE800D2B20B4483F800230AE03B68DAB20849F0
:103DF800FB7903F00F03043B1201D2B20B441A768D
:103E080000BF0C37BD465DF8047B704700E100E059
:103E180000ED00E080B489B000AFF860B9607A6066
:103E2800FB6803F00703FB61FB69C3F10703042B7D
:103E380028BF0423BB61FB690433062B02D9FB6945
:103E4800033B00E000237B614FF0FF32BB6902FABD
:103E580003F3DA43BB681A407B699A404FF0FF319D
:103E68007B6901FA03F3D9437B680B401343184677
:103E78002437BD465DF8047B7047000080B400AF6E
:103E8800BFF34F8F00BF064BDB6803F4E0620449C1
:103E9800044B1343CB60BFF34F8F00BF00BFFDE758
:103EA80000ED00E00400FA0580B582B000AF78604C
:103EB8007B68013BB3F1807F01D301230FE00A4AFD
:103EC8007B68013B53600F214FF0FF30FFF778FF0D
:103ED800054B00229A60044B07221A6000231846FB
:103EE8000837BD4680BD00BF10E000E080B582B055
:103EF80000AF78607868FFF713FF00BF0837BD464A
:103F080080BD80B586B000AF0346B9607A60FB73A8
:103F180000237B61FFF728FF78617A68B9687869C0
:103F2800FFF778FF024697F90F3011461846FFF75A
:103F380047FF00BF1837BD4680BD80B582B000AFCF
:103F48000346FB7197F907301846FFF71BFF00BFC0
:103F58000837BD4680BD80B500AFFFF78FFF80B53D
:103F680082B000AF78607868FFF79EFF0346184676
:103F78000837BD4680BD80B584B000AF78600023A7
:103F8800FB607B68002B01D1012337E07B680222AC
:103F980083F821207B681B681B68FB60FB6823F49F
:103FA8007F5323F03003FB607B685A687B689B680B
:103FB8001A437B68DB681A437B681B691A437B6872
:103FC8005B691A437B689B691A437B68DB69134307
:103FD800FA681343FB607B681B68FA681A607868A4
:103FE80000F0BCF97B6800229A637B68012283F8A1
:103FF80021207B68002283F82020002318461037F0
:10400800BD4680BD80B586B000AFF860B9607A6003
:104018003B600023FB75FB6893F82030012B01D12E
:1040280002234AE0FB68012283F82020FB6893F80A
:104038002130012B3AD1FB68022283F82120FB684A
:1040480000229A63FB681B681A68FB681B6822F0E9
:1040580001021A603B687A68B968F86800F050F99C
:10406800FB68DB6A002B08D0FB681B681A68FB68D2
:104078001B6842F00E021A600FE0FB681B681A68A2
:10408800FB681B6842F00A021A60FB681B681A6822
:10409800FB681B6822F004021A60FB681B681A6838
:1040A800FB681B6842F001021A6005E0FB68002209
:1040B80083F820200223FB75FB7D18461837BD4680
:1040C80080BD80B483B000AF78607B68002B01D1DD
:1040D80001232EE07B6893F82130022B08D07B68FF
:1040E80004229A637B68002283F82020012320E0C1
:1040F8007B681B681A687B681B6822F00E021A60CE
:104108007B681B681A687B681B6822F001021A60CA
:104118007B681A6C7B68DB6B012101FA02F25A603A
:104128007B68012283F821207B68002283F8202005
:10413800002318460C37BD465DF8047B704780B5F0
:1041480084B000AF78600023FB737B6893F821305C
:10415800022B05D07B6804229A630123FB7327E0B6
:104168007B681B681A687B681B6822F00E021A605D
:104178007B681B681A687B681B6822F001021A605A
:104188007B681A6C7B68DB6B012101FA02F25A60CA
:104198007B68012283F821207B68002283F8202095
:1041A8007B685B6B002B03D07B685B6B78689847F8
:1041B800FB7B18461037BD4680BD80B584B000AF84
:1041C80078607B68DB6B1B68FB607B681B681B681F
:1041D800BB607B681B6C04229A40FB681340002B71
:1041E80024D0BB6803F00403002B1FD07B681B6836
:1041F8001B6803F02003002B07D17B681B681A6833
:104208007B681B6822F004021A607B681A6C7B6862
:10421800DB6B042101FA02F25A607B68DB6A002B2F
:104228006AD07B68DB6A7868984765E07B681B6CB6
:1042380002229A40FB681340002B2CD0BB6803F085
:104248000203002B27D07B681B681B6803F0200340
:10425800002B0BD17B681B681A687B681B6822F0EF
:104268000A021A607B68012283F821207B681A6C95
:104278007B68DB6B022101FA02F25A607B6800223C
:1042880083F820207B689B6A002B35D07B689B6A6B
:104298007868984730E07B681B6C08229A40FB6876
:1042A8001340002B28D0BB6803F00803002B23D051
:1042B8007B681B681A687B681B6822F00E021A600C
:1042C8007B681A6C7B68DB6B012101FA02F25A6089
:1042D8007B6801229A637B68012283F821207B682E
:1042E800002283F820207B681B6B002B04D07B689E
:1042F8001B6B78689847FFE700BF1037BD4680BD45
:1043080080B485B000AFF860B9607A603B60FB6844
:104318001A6CFB68DB6B012101FA02F25A60FB6838
:104328001B683A685A60FB685B68102B08D1FB6809
:104338001B687A689A60FB681B68BA68DA6007E0ED
:10434800FB681B68BA689A60FB681B687A68DA6061
:1043580000BF1437BD465DF8047B704780B483B056
:1043680000AF78607B681B681A46144B9A420FD8D6
:104378007B681B681A46124B1344124AA2FB03239C
:104388001B099A007B681A647B680F4ADA630EE09F
:104398007B681B681A460D4B13440A4AA2FB032389
:1043A8001B099A007B681A647B68094ADA6300BFB4
:1043B8000C37BD465DF8047B704700BF0704024018
:1043C800F8FFFDBFCDCCCCCC00000240F8FBFDBF10
:1043D80000040240F0B587B000AFF860B960C7E9E3
:1043E80000230123FB750023BB7500237B752F4B2E
:1043F8001B7E012B01D1022354E02C4B01221A769B
:104408004CF2503000F0A8F80346FB75FB7D002BFA
:1044180044D1FB68012B02D101237B7507E0FB68BF
:10442800022B02D102237B7501E004237B75002354
:10443800BB752DE0BB7D5A00BB6802EB030CBB7D4E
:104448001901D7E90023C1F12006A1F1200022FAC1
:1044580001F403FA06F6344323FA00F0044323FA7E
:1044680001F5A3B21946604600F05AF84CF25030F4
:1044780000F072F80346FB750D4B1B690C4A23F0DC
:1044880001031361FB7D002B07D1BB7D0133BB7595
:10449800BA7D7B7D9A42CDD300E000BF034B00225A
:1044A8001A76FB7D18461C37BD46F0BDD80600209D
:1044B8000020024080B483B000AF0023FB710D4B95
:1044C8001B6903F08003002B0DD00A4B0A4A5A607F
:1044D800084B0A4A5A60074B1B6903F08003002BFC
:1044E80001D00123FB71FB7918460C37BD465DF8F6
:1044F800047B70470020024023016745AB89EFCD5C
:1045080080B400AF054B1B69044A43F08003136174
:1045180000231846BD465DF8047B70470020024022
:1045280080B483B000AF78600B467B80084B0022D4
:10453800DA61084B1B69074A43F0010313617B6882
:104548007A881A8000BF0C37BD465DF8047B704737
:10455800D80600200020024080B584B000AF786003
:10456800FEF75CFAF86010E07B68B3F1FF3F0CD00F
:104578007B68002B07D0FEF751FA0246FB68D31A76
:104588007A689A4201D203231FE0124BDB6803F0DA
:104598000103012BE8D00F4BDB6803F02003202B2D
:1045A80002D10C4B2022DA600A4BDB6803F01003BF
:1045B800102B05D0074BDB6803F00403042B03D151
:1045C80000F00AF8012300E0002318461037BD4622
:1045D80080BD00BF0020024080B483B000AF00233C
:1045E8007B60144BDB6803F01003102B09D1124BCE
:1045F800DB6943F00203104AD3617B6843F0100380
:104608007B600C4BDB6803F00403042B09D10A4BD5
:10461800DB6943F00103084AD3617B6843F0040374
:104628007B60044A7B68D36000BF0C37BD465DF8E9
:10463800047B704700200240D806002080B584B073
:1046480000AF786039600123FB730023BB602E4BF9
:104658001B7E012B01D1022352E02B4B01221A763B
:104668007B681B68012B15D14CF25030FFF774FFA3
:104678000346002B40D100F04BF84CF25030FFF7C6
:104688006BFF0346FB73214B1B69204A23F004038D
:10469800136131E04CF25030FFF75EFF0346002B08
:1046A8002AD13B684FF0FF321A607B685B68BB60B9
:1046B80019E0B86800F046F84CF25030FFF74CFFAC
:1046C8000346FB73114B1B69104A23F00203136165
:1046D800FB7B002B03D03B68BA681A600CE0BB6810
:1046E80003F50063BB607B689B68DA027B685B68E4
:1046F8001344BA689A42DCD3034B00221A76FB7B38
:1047080018461037BD4680BDD8060020002002405C
:1047180080B400AF094B0022DA61094B1B69084AD3
:1047280043F004031361064B1B69054A43F0400339
:10473800136100BFBD465DF8047B7047D8060020B2
:104748000020024080B483B000AF78600B4B002299
:10475800DA610B4B1B690A4A43F002031361084AEA
:104768007B685361064B1B69054A43F0400313619C
:1047780000BF0C37BD465DF8047B7047D8060020A3
:104788000020024080B487B000AF78603960002311
:104798007B6154E13B681A6801217B6901FA03F3E4
:1047A8001340FB60FB68002B00F046813B685B68A8
:1047B80003F00303012B05D03B685B6803F0030398
:1047C800022B30D17B689B683B617B695B000322CD
:1047D80002FA03F3DB433A6913403B613B68DA684A
:1047E8007B695B0002FA03F33A6913433B617B6818
:1047F8003A699A607B685B683B6101227B6902FACF
:1048080003F3DB433A6913403B613B685B681B0970
:1048180003F001027B6902FA03F33A6913433B612F
:104828007B683A695A603B685B6803F00303032BB3
:1048380017D07B68DB683B617B695B00032202FA67
:1048480003F3DB433A6913403B613B689A687B6931
:104858005B0002FA03F33A6913433B617B683A69E8
:10486800DA603B685B6803F00303022B23D17B69A2
:10487800DA087B68083253F822303B617B6903F021
:1048880007039B000F2202FA03F3DB433A69134044
:104898003B613B681A697B6903F007039B0002FAD6
:1048A80003F33A6913433B617B69DA087B68083292
:1048B800396943F822107B681B683B617B695B00A0
:1048C800032202FA03F3DB433A6913403B613B6876
:1048D8005B6803F003027B695B0002FA03F33A6941
:1048E80013433B617B683A691A603B685B6803F471
:1048F8004033002B00F0A080584B9B69574A43F087
:1049080001039361554B9B6903F00103BB60BB68CE
:10491800534A7B699B08023352F823303B617B6919
:1049280003F003039B000F2202FA03F3DB433A6907
:1049380013403B617B68B3F1904F19D07B68494ABB
:10494800934213D07B68484A93420DD07B68474A0C
:10495800934207D07B68464A934201D1042308E07A
:10496800052306E0032304E0022302E0012300E01C
:1049780000237A6902F00302920093403A691343D4
:104988003B6137497B699B0802333A6941F8232028
:10499800384B9B683B61FB68DB433A6913403B61DA
:1049A8003B685B6803F48013002B03D03A69FB680B
:1049B80013433B612F4A3B6993602E4BDB683B6195
:1049C800FB68DB433A6913403B613B685B6803F46F
:1049D8000013002B03D03A69FB6813433B61254A57
:1049E8003B69D360234B5B683B61FB68DB433A69F7
:1049F80013403B613B685B6803F40033002B03D032
:104A08003A69FB6813433B611A4A3B695360194B87
:104A18001B683B61FB68DB433A6913403B613B68B9
:104A28005B6803F48033002B03D03A69FB681343B7
:104A38003B61104A3B6913607B6901337B613B68CA
:104A48001A687B6922FA03F3002B7FF4A3AE00BF38
:104A580000BF1C37BD465DF8047B7047001002405C
:104A6800000001400004004800080048000C00480D
:104A7800001000480004014080B485B000AF7860A1
:104A88000B467B807B681A697B881340002B02D019
:104A98000123FB7301E00023FB73FB7B18461437EB
:104AA800BD465DF8047B704780B485B000AF786080
:104AB8000B4BDB690A4A43F08053D361084BDB692F
:104AC80003F08053FB60FB68064B1A6805497B6856
:104AD80013430B6000BF1437BD465DF8047B704775
:104AE800001002400070004080B584B000AF002381
:104AF800FB60494B1B68484A43F001031360FDF70C
:104B08008DFFF86008E0FDF789FF0246FB68D31ABD
:104B1800022B01D903237BE03F4B1B6803F0020300
:104B2800002BF0D03C4B1B6823F0F8033A4A43F0C3
:104B380080031360384B5A683749384B13404B6031
:104B4800FDF76CFFF8600AE0FDF768FF0246FB68B6
:104B5800D31A41F28832934201D9032358E02E4BED
:104B68005B6803F00C03002BEED12D4B2D4A1A6025
:104B78002D4B1B681846FDF70DFF0346002B01D08F
:104B8800012345E0244B1B68234A23F0847323F454
:104B980080331360204B1B681F4A23F48023136063
:104BA800FDF73CFFF86008E0FDF738FF0246FB68B8
:104BB800D31A022B01D903232AE0174B1B6803F0F1
:104BC8000073002BF0D1144B00225A60124B0022C4
:104BD800DA62114B00221A630F4B9B680E4A43F4AA
:104BE8001F0393600C4B00229A604FF08073BB60E8
:104BF800BB6893FAA3F37B607B68B3FA83F3DBB2F9
:104C08001A460A4B13449B001A46012313600023DB
:104C180018461037BD4680BD001002400CC0FFF892
:104C28000400002000127A00080000202081901063
:104C380080B5ADF5007D00AF07F50073A3F5FE73F1
:104C4800186007F50073A3F5FE731B68002B02D1EB
:104C5800012301F023B807F50073A3F5FE731B6861
:104C68001B6803F00103002B00F07D81BC4B5B68DF
:104C780003F00C03042B0CD0B94B5B6803F00C0356
:104C8800082B5CD1B64B5B6803F48033B3F5803FE7
:104C980055D14FF40033C7F8F031D7F8F03193FA13
:104CA800A3F3C7F8EC31D7F8EC31B3FA83F3DBB2EE
:104CB8005B09DBB243F00103DBB2012B02D1A84B45
:104CC8001B6815E04FF40033C7F8E831D7F8E8312E
:104CD80093FAA3F3C7F8E4314FF40033C7F8E0318F
:104CE800D7F8E03193FAA3F3C7F8DC319C4B5B6A41
:104CF8004FF40032C7F8D821D7F8D82192FAA2F297
:104D0800C7F8D421D7F8D421B2FA82F2D2B242F04D
:104D18002002D2B202F01F02012101FA02F213406E
:104D2800002B00F01F8107F50073A3F5FE731B68C5
:104D38005B68002B40F01681012300F0AFBF07F538
:104D48000073A3F5FE731B685B68B3F5803F06D15B
:104D5800834B1B68824A43F48033136036E007F5BF
:104D68000073A3F5FE731B685B68002B0CD17C4BAA
:104D78001B687B4A23F480331360794B1B68784A9D
:104D880023F48023136021E007F50073A3F5FE7375
:104D98001B685B68B3F5A02F0CD1714B1B68704A78
:104DA80043F4802313606E4B1B686D4A43F48033D1
:104DB80013600BE06A4B1B68694A23F48033136065
:104DC800674B1B68664A23F480231360644BDB6AD5
:104DD80023F00F0207F50073A3F5FE731B689B68A9
:104DE8005F491343CB6207F50073A3F5FE731B6895
:104DF8005B68002B59D0FDF711FEC7F8F8010AE0EF
:104E0800FDF70CFE0246D7F8F831D31A642B02D905
:104E1800032300F043BF4FF40033C7F8D031D7F86D
:104E2800D03193FAA3F3C7F8CC31D7F8CC31B3FA21
:104E380083F3DBB25B09DBB243F00103DBB2012B86
:104E480002D1474B1B6815E04FF40033C7F8C8314F
:104E5800D7F8C83193FAA3F3C7F8C4314FF4003335
:104E6800C7F8C031D7F8C03193FAA3F3C7F8BC31FB
:104E78003B4B5B6A4FF40032C7F8B821D7F8B8212A
:104E880092FAA2F2C7F8B421D7F8B421B2FA82F2A2
:104E9800D2B242F02002D2B202F01F02012101FA7E
:104EA80002F21340002BABD05DE0FDF7B7FDC7F869
:104EB800F8010AE0FDF7B2FD0246D7F8F831D31A37
:104EC800642B02D9032300F0E9BE4FF40033C7F87E
:104ED800B031D7F8B03193FAA3F3C7F8AC31D7F8AB
:104EE800AC31B3FA83F3DBB25B09DBB243F0010305
:104EF800DBB2012B02D11A4B1B6815E04FF40033CB
:104F0800C7F8A831D7F8A83193FAA3F3C7F8A431A2
:104F18004FF40033C7F8A031D7F8A03193FAA3F3C0
:104F2800C7F89C310E4B5B6A4FF40032C7F89821E2
:104F3800D7F8982192FAA2F2C7F89421D7F89421C9
:104F4800B2FA82F2D2B242F02002D2B202F01F02CA
:104F5800012101FA02F21340002BABD103E000BF9C
:104F68000010024000BF07F50073A3F5FE731B682D
:104F78001B6803F00203002B00F07D81A64B5B68E1
:104F880003F00C03002B0BD0A34B5B6803F00C035E
:104F9800082B72D1A04B5B6803F48033002B6CD1D3
:104FA8000223C7F89031D7F8903193FAA3F3C7F8E2
:104FB8008C31D7F88C31B3FA83F3DBB25B09DBB2FF
:104FC80043F00103DBB2012B02D1934B1B6813E0C2
:104FD8000223C7F88831D7F8883193FAA3F3C7F8C2
:104FE80084310223C7F88031D7F8803193FAA3F3CC
:104FF800C7F87C31884B5B6A0222C7F87821D7F85A
:10500800782192FAA2F2C7F87421D7F87421B2FA7B
:1050180082F2D2B242F02002D2B202F01F02012183
:1050280001FA02F21340002B0AD007F50073A3F52A
:10503800FE731B681B69012B02D0012300F02EBEF2
:10504800754B1B6823F0F80207F50073A3F5FE7390
:105058001B685B69F821C7F87011D7F8701191FACD
:10506800A1F1C7F86C11D7F86C11B1FA81F1C9B286
:105078008B40694913430B60FDE007F50073A3F506
:10508800FE731B681B69002B00F088800123C7F89A
:105098006831D7F8683193FAA3F3C7F86431D7F8C1
:1050A8006431B3FA83F3DBB203F1845303F5841359
:1050B8009B001A4601231360FDF7B0FCC7F8F801FE
:1050C8000AE0FDF7ABFC0246D7F8F831D31A022BF9
:1050D80002D9032300F0E2BD0223C7F86031D7F8F4
:1050E800603193FAA3F3C7F85C31D7F85C31B3FAAF
:1050F80083F3DBB25B09DBB243F00103DBB2012BC4
:1051080002D1454B1B6813E00223C7F85831D7F882
:10511800583193FAA3F3C7F854310223C7F8503132
:10512800D7F8503193FAA3F3C7F84C313A4B5B6A7E
:105138000222C7F84821D7F8482192FAA2F2C7F804
:105148004421D7F84421B2FA82F2D2B242F02002C6
:10515800D2B202F01F02012101FA02F21340002B21
:10516800AFD02D4B1B6823F0F80207F50073A3F5A9
:10517800FE731B685B69F821C7F84011D7F8401126
:1051880091FAA1F1C7F83C11D7F83C11B1FA81F1B5
:10519800C9B28B40204913430B606CE00123C7F868
:1051A8003831D7F8383193FAA3F3C7F83431D7F840
:1051B8003431B3FA83F3DBB203F1845303F5841378
:1051C8009B001A4600231360FDF728FCC7F8F80176
:1051D8000AE0FDF723FC0246D7F8F831D31A022B70
:1051E80002D9032300F05ABD0223C7F83031D7F89B
:1051F800303193FAA3F3C7F82C31D7F82C31B3FA2E
:1052080083F3DBB25B09DBB243F00103DBB2012BB2
:1052180004D1014B1B6815E0001002400223C7F8B7
:105228002831D7F8283193FAA3F3C7F82431022399
:10523800C7F82031D7F8203193FAA3F3C7F81C3107
:10524800C84B5B6A0222C7F81821D7F8182192FACE
:10525800A2F2C7F81421D7F81421B2FA82F2D2B216
:1052680042F02002D2B202F01F02012101FA02F23A
:105278001340002BADD107F50073A3F5FE731B682F
:105288001B6803F00803002B00F0108107F500737A
:10529800A3F5FE731B689B69002B79D00123C7F81F
:1052A8001031D7F8103193FAA3F3C7F80C31D7F8B7
:1052B8000C31B3FA83F3DBB21A46AB4B13449B00B1
:1052C8001A4601231360FDF7A9FBC7F8F8010AE0A5
:1052D800FDF7A4FB0246D7F8F831D31A022B02D9FE
:1052E800032300F0DBBC0223C7F80831D7F80831E4
:1052F80093FAA3F3C7F8043107F50073A3F5807395
:1053080002221A6007F50073A3F580731B6893FAED
:10531800A3F207F50073A3F582731A6007F500730B
:10532800A3F5847302221A6007F50073A3F584734A
:105338001B6893FAA3F207F50073A3F586731A6046
:10534800884B5A6A07F50073A3F588730221196020
:1053580007F50073A3F588731B6893FAA3F107F5A3
:105368000073A3F58A73196007F50073A3F58A73B0
:105378001B68B3FA83F3DBB243F06003DBB203F0DC
:105388001F03012101FA03F31340002BA0D08DE085
:1053980007F50073A3F58C7301221A6007F50073F3
:1053A800A3F58C731B6893FAA3F207F50073A3F5B2
:1053B8008E731A6007F50073A3F58E731B68B3FA32
:1053C80083F3DBB21A46684B13449B001A4600234A
:1053D8001360FDF723FBC7F8F8010AE0FDF71EFB91
:1053E8000246D7F8F831D31A022B02D9032300F06A
:1053F80055BC07F50073A3F5907302221A6007F5F0
:105408000073A3F590731B6893FAA3F207F5007372
:10541800A3F592731A6007F50073A3F5947302223B
:105428001A6007F50073A3F594731B6893FAA3F247
:1054380007F50073A3F596731A6007F50073A3F5D3
:10544800987302221A6007F50073A3F598731B6816
:1054580093FAA3F207F50073A3F59A731A60414B08
:105468005A6A07F50073A3F59C730221196007F5C2
:105478000073A3F59C731B6893FAA3F107F50073F7
:10548800A3F59E73196007F50073A3F59E731B6857
:10549800B3FA83F3DBB243F06003DBB203F01F031C
:1054A800012101FA03F31340002B97D107F500738C
:1054B800A3F5FE731B681B6803F00403002B00F0C0
:1054C800A181002387F8FF31264BDB6903F0805365
:1054D800002B16D1234BDB69224A43F08053D3615A
:1054E800204BDB6903F0805207F50073A3F5FC73CA
:1054F8001A6007F50073A3F5FC731B68012387F88E
:10550800FF311A4B1B6803F48073002B1AD1174B19
:105518001B68164A43F480731360FDF77FFAC7F8D7
:10552800F80109E0FDF77AFA0246D7F8F831D31AFC
:10553800642B01D90323B1E30C4B1B6803F480737C
:10554800002BEFD007F50073A3F5FE731B68DB682B
:10555800012B0DD1034B1B6A024A43F0010313626E
:105568003CE000BF00100240208190100070004015
:1055780007F50073A3F5FE731B68DB68002B0CD1DD
:10558800C14B1B6AC04A23F001031362BE4B1B6A5E
:10559800BD4A23F00403136220E007F50073A3F566
:1055A800FE731B68DB68052B0CD1B74B1B6AB64A28
:1055B80043F004031362B44B1B6AB34A43F001037C
:1055C80013620BE0B04B1B6AAF4A23F0010313626E
:1055D800AD4B1B6AAC4A23F00403136207F5007352
:1055E800A3F5FE731B68DB68002B00F08180FDF7D4
:1055F80015FAC7F8F8010BE0FDF710FA0246D7F8DC
:10560800F831D31A41F28832934201D9032345E392
:1056180007F50073A3F5A07302221A6007F500735B
:10562800A3F5A0731B6893FAA3F207F50073A3F51B
:10563800A2731A6007F50073A3F5A47302221A6017
:1056480007F50073A3F5A4731B6893FAA3F207F593
:105658000073A3F5A6731A6007F50073A3F5A67384
:105668001B68B3FA83F3DBB25B09DBB243F00203D6
:10567800DBB2022B02D1844B1B6A13E007F50073DF
:10568800A3F5A87302221A6007F50073A3F5A8739F
:105698001B6893FAA3F207F50073A3F5AA731A60BF
:1056A800794B5B6A07F50072A2F5AC7202211160B2
:1056B80007F50072A2F5AC72126892FAA2F107F52A
:1056C8000072A2F5AE72116007F50072A2F5AE7213
:1056D8001268B2FA82F2D2B242F04002D2B202F0BA
:1056E8001F02012101FA02F21340002B84D07FE04F
:1056F800FDF794F9C7F8F8010BE0FDF78FF90246BA
:10570800D7F8F831D31A41F28832934201D90323EA
:10571800C4E207F50073A3F5B07302221A6007F517
:105728000073A3F5B0731B6893FAA3F207F500732F
:10573800A3F5B2731A6007F50073A3F5B4730222D8
:105748001A6007F50073A3F5B4731B6893FAA3F204
:1057580007F50073A3F5B6731A6007F50073A3F590
:10576800B6731B68B3FA83F3DBB25B09DBB243F0B1
:105778000203DBB2022B02D1434B1B6A13E007F58D
:105788000073A3F5B87302221A6007F50073A3F536
:10579800B8731B6893FAA3F207F50073A3F5BA73FD
:1057A8001A60394B5B6A07F50072A2F5BC720221D8
:1057B800116007F50072A2F5BC72126892FAA2F1A4
:1057C80007F50072A2F5BE72116007F50072A2F526
:1057D800BE721268B2FA82F2D2B242F04002D2B27B
:1057E80002F01F02012101FA02F21340002B84D1BA
:1057F80097F8FF31012B05D1234BDB69224A23F0AF
:105808008053D36107F50073A3F5FE731B68DB694A
:10581800002B00F042821C4B5B6803F00C03082B42
:1058280000F0138207F50073A3F5FE731B68DB69AC
:10583800022B40F0628107F50073A3F5C0734FF0A7
:1058480080721A6007F50073A3F5C0731B6893FA9A
:10585800A3F207F50073A3F5C2731A6007F5007386
:10586800A3F5C2731B68B3FA83F3DBB203F1845365
:1058780003F584139B001A4600231360FDF7CEF846
:10588800C7F8F8010CE000BF00100240FDF7C6F8A9
:105898000246D7F8F831D31A022B01D90323FDE1C8
:1058A80007F50073A3F5C4734FF000721A6007F58B
:1058B8000073A3F5C4731B6893FAA3F207F500738A
:1058C800A3F5C6731A6007F50073A3F5C6731B68C2
:1058D800B3FA83F3DBB25B09DBB243F00103DBB25B
:1058E800012B02D1B04B1B6827E007F50073A3F525
:1058F800C8734FF000721A6007F50073A3F5C873F8
:105908001B6893FAA3F207F50073A3F5CA731A602C
:1059180007F50073A3F5CC734FF000721A6007F512
:105928000073A3F5CC731B6893FAA3F207F5007311
:10593800A3F5CE731A609C4B5B6A07F50072A2F55B
:10594800D0724FF00071116007F50072A2F5D072A5
:10595800126892FAA2F107F50072A2F5D2721160EC
:1059680007F50072A2F5D2721268B2FA82F2D2B2C8
:1059780042F02002D2B202F01F02012101FA02F223
:105988001340002B82D1884B5B6823F4741207F50F
:105998000073A3F5FE731B68596A07F50073A3F536
:1059A800FE731B681B6A0B437F4913434B6007F563
:1059B8000073A3F5D4734FF080721A6007F5007373
:1059C800A3F5D4731B6893FAA3F207F50073A3F544
:1059D800D6731A6007F50073A3F5D6731B68B3FA7C
:1059E80083F3DBB203F1845303F584139B001A4657
:1059F80001231360FDF712F8C7F8F80109E0FDF775
:105A08000DF80246D7F8F831D31A022B01D903232F
:105A180044E107F50073A3F5D8734FF000721A60DC
:105A280007F50073A3F5D8731B6893FAA3F207F57B
:105A38000073A3F5DA731A6007F50073A3F5DA7338
:105A48001B68B3FA83F3DBB25B09DBB243F00103F3
:105A5800DBB2012B02D1544B1B6827E007F500731A
:105A6800A3F5DC734FF000721A6007F50073A3F515
:105A7800DC731B6893FAA3F207F50073A3F5DE73D2
:105A88001A6007F50073A3F5E0734FF000721A600F
:105A980007F50073A3F5E0731B6893FAA3F207F503
:105AA8000073A3F5E2731A603F4B5B6A07F5007257
:105AB800A2F5E4724FF00071116007F50072A2F5CB
:105AC800E472126892FAA2F107F50072A2F5E67282
